{
  "contractName": "Demo",
  "abi": [
    {
      "constant": false,
      "inputs": [
        {
          "name": "_x",
          "type": "uint256"
        }
      ],
      "name": "setX",
      "outputs": [],
      "payable": false,
      "stateMutability": "nonpayable",
      "type": "function"
    },
    {
      "constant": true,
      "inputs": [],
      "name": "getX",
      "outputs": [
        {
          "name": "",
          "type": "uint256"
        }
      ],
      "payable": false,
      "stateMutability": "view",
      "type": "function"
    }
  ],
  "bytecode": "0x608060405234801561001057600080fd5b5060ec8061001f6000396000f3fe6080604052600436106049576000357c0100000000000000000000000000000000000000000000000000000000900463ffffffff1680634018d9aa14604e5780635197c7aa146085575b600080fd5b348015605957600080fd5b50608360048036036020811015606e57600080fd5b810190808035906020019092919050505060ad565b005b348015609057600080fd5b50609760b7565b6040518082815260200191505060405180910390f35b8060008190555050565b6000805490509056fea165627a7a723058200d819987ae759539b98ddc42472348a2480616ac01232d1d9cfc7484b137cf3b0029",
  "source": "pragma solidity ^0.5.0;\n\ncontract Demo {\n  uint x;\n\n  function setX(uint _x) public {\n    x = _x;\n  }\n\n  function getX() public view returns (uint) {\n    return x;\n  }\n}\n\ncontract ExtendDemo is Demo {\n  function addTwo() public returns (uint) {\n    return x += 2;\n  }\n}\n",
  "sourcePath": "E:/workspace_oxygen/data/private/vue/crypto-voting-master/contracts/demo.sol",
  "compiler": {
    "name": "solc",
    "version": "0.5.0+commit.1d4f565a.Emscripten.clang"
  },
  "schemaVersion": "3.0.1",
  "updatedAt": "2019-02-20T15:02:27.139Z",
  "devdoc": {
    "methods": {}
  },
  "userdoc": {
    "methods": {}
  }
}