{
  "contractName": "Election",
  "abi": [
    {
      "constant": true,
      "inputs": [],
      "name": "candidatesCount",
      "outputs": [
        {
          "name": "",
          "type": "uint256"
        }
      ],
      "payable": false,
      "stateMutability": "view",
      "type": "function"
    },
    {
      "constant": true,
      "inputs": [
        {
          "name": "",
          "type": "uint256"
        }
      ],
      "name": "candidates",
      "outputs": [
        {
          "name": "id",
          "type": "uint256"
        },
        {
          "name": "gid",
          "type": "string"
        },
        {
          "name": "name",
          "type": "string"
        },
        {
          "name": "title",
          "type": "string"
        },
        {
          "name": "affiliation",
          "type": "string"
        },
        {
          "name": "gender",
          "type": "uint256"
        },
        {
          "name": "country",
          "type": "string"
        },
        {
          "name": "picurl",
          "type": "string"
        },
        {
          "name": "voteCount",
          "type": "uint256"
        }
      ],
      "payable": false,
      "stateMutability": "view",
      "type": "function"
    },
    {
      "constant": true,
      "inputs": [],
      "name": "closingTime",
      "outputs": [
        {
          "name": "",
          "type": "uint256"
        }
      ],
      "payable": false,
      "stateMutability": "view",
      "type": "function"
    },
    {
      "constant": true,
      "inputs": [],
      "name": "operator",
      "outputs": [
        {
          "name": "",
          "type": "address"
        }
      ],
      "payable": false,
      "stateMutability": "view",
      "type": "function"
    },
    {
      "constant": true,
      "inputs": [],
      "name": "owner",
      "outputs": [
        {
          "name": "",
          "type": "address"
        }
      ],
      "payable": false,
      "stateMutability": "view",
      "type": "function"
    },
    {
      "constant": true,
      "inputs": [
        {
          "name": "",
          "type": "address"
        }
      ],
      "name": "voters",
      "outputs": [
        {
          "name": "",
          "type": "bool"
        }
      ],
      "payable": false,
      "stateMutability": "view",
      "type": "function"
    },
    {
      "constant": true,
      "inputs": [],
      "name": "openingTime",
      "outputs": [
        {
          "name": "",
          "type": "uint256"
        }
      ],
      "payable": false,
      "stateMutability": "view",
      "type": "function"
    },
    {
      "constant": true,
      "inputs": [],
      "name": "admin",
      "outputs": [
        {
          "name": "",
          "type": "address"
        }
      ],
      "payable": false,
      "stateMutability": "view",
      "type": "function"
    },
    {
      "inputs": [],
      "payable": false,
      "stateMutability": "nonpayable",
      "type": "constructor"
    },
    {
      "anonymous": false,
      "inputs": [
        {
          "indexed": true,
          "name": "_candidateId",
          "type": "uint256"
        }
      ],
      "name": "votedEvent",
      "type": "event"
    },
    {
      "constant": false,
      "inputs": [
        {
          "name": "newAdmin",
          "type": "address"
        }
      ],
      "name": "setAdmin",
      "outputs": [],
      "payable": false,
      "stateMutability": "nonpayable",
      "type": "function"
    },
    {
      "constant": false,
      "inputs": [
        {
          "name": "newOperator",
          "type": "address"
        }
      ],
      "name": "setOperator",
      "outputs": [],
      "payable": false,
      "stateMutability": "nonpayable",
      "type": "function"
    },
    {
      "constant": true,
      "inputs": [],
      "name": "isOpening",
      "outputs": [
        {
          "name": "",
          "type": "bool"
        }
      ],
      "payable": false,
      "stateMutability": "view",
      "type": "function"
    },
    {
      "constant": true,
      "inputs": [],
      "name": "hasClosed",
      "outputs": [
        {
          "name": "",
          "type": "bool"
        }
      ],
      "payable": false,
      "stateMutability": "view",
      "type": "function"
    },
    {
      "constant": false,
      "inputs": [],
      "name": "addDefaultCandidates",
      "outputs": [],
      "payable": false,
      "stateMutability": "nonpayable",
      "type": "function"
    },
    {
      "constant": false,
      "inputs": [
        {
          "name": "gid",
          "type": "string"
        },
        {
          "name": "name",
          "type": "string"
        },
        {
          "name": "title",
          "type": "string"
        },
        {
          "name": "affiliation",
          "type": "string"
        },
        {
          "name": "gender",
          "type": "uint256"
        },
        {
          "name": "country",
          "type": "string"
        },
        {
          "name": "picurl",
          "type": "string"
        }
      ],
      "name": "addCandidate",
      "outputs": [],
      "payable": false,
      "stateMutability": "nonpayable",
      "type": "function"
    },
    {
      "constant": false,
      "inputs": [
        {
          "name": "candidateId",
          "type": "uint256"
        }
      ],
      "name": "vote",
      "outputs": [],
      "payable": false,
      "stateMutability": "nonpayable",
      "type": "function"
    },
    {
      "constant": true,
      "inputs": [
        {
          "name": "source",
          "type": "string"
        }
      ],
      "name": "stringToBytes32",
      "outputs": [
        {
          "name": "result",
          "type": "bytes32"
        }
      ],
      "payable": false,
      "stateMutability": "pure",
      "type": "function"
    }
  ],
  "bytecode": "0x608060405234801561001057600080fd5b50336000806101000a81548173ffffffffffffffffffffffffffffffffffffffff021916908373ffffffffffffffffffffffffffffffffffffffff160217905550426006819055506312cc03004201600781905550614405806100746000396000f3fe6080604052600436106100e6576000357c0100000000000000000000000000000000000000000000000000000000900463ffffffff1680630121b93f146100eb5780631515bc2b146101265780632d35a8a2146101555780633477ee2e146101805780634b6753bc14610465578063570ca73514610490578063704b6c02146104e7578063766d5235146105385780638da5cb5b146105675780639c117879146105be578063a3ec138d146105d5578063b1c67d971461063e578063b3ab15fb14610a03578063b7a8807c14610a54578063cfb5192814610a7f578063f851a44014610b5b575b600080fd5b3480156100f757600080fd5b506101246004803603602081101561010e57600080fd5b8101908080359060200190929190505050610bb2565b005b34801561013257600080fd5b5061013b610e4a565b604051808215151515815260200191505060405180910390f35b34801561016157600080fd5b5061016a610e56565b6040518082815260200191505060405180910390f35b34801561018c57600080fd5b506101b9600480360360208110156101a357600080fd5b8101908080359060200190929190505050610e5c565b604051808a815260200180602001806020018060200180602001898152602001806020018060200188815260200187810387528f818151815260200191508051906020019080838360005b8381101561021f578082015181840152602081019050610204565b50505050905090810190601f16801561024c5780820380516001836020036101000a031916815260200191505b5087810386528e818151815260200191508051906020019080838360005b8381101561028557808201518184015260208101905061026a565b50505050905090810190601f1680156102b25780820380516001836020036101000a031916815260200191505b5087810385528d818151815260200191508051906020019080838360005b838110156102eb5780820151818401526020810190506102d0565b50505050905090810190601f1680156103185780820380516001836020036101000a031916815260200191505b5087810384528c818151815260200191508051906020019080838360005b83811015610351578082015181840152602081019050610336565b50505050905090810190601f16801561037e5780820380516001836020036101000a031916815260200191505b5087810383528a818151815260200191508051906020019080838360005b838110156103b757808201518184015260208101905061039c565b50505050905090810190601f1680156103e45780820380516001836020036101000a031916815260200191505b50878103825289818151815260200191508051906020019080838360005b8381101561041d578082015181840152602081019050610402565b50505050905090810190601f16801561044a5780820380516001836020036101000a031916815260200191505b509f5050505050505050505050505050505060405180910390f35b34801561047157600080fd5b5061047a61123a565b6040518082815260200191505060405180910390f35b34801561049c57600080fd5b506104a5611240565b604051808273ffffffffffffffffffffffffffffffffffffffff1673ffffffffffffffffffffffffffffffffffffffff16815260200191505060405180910390f35b3480156104f357600080fd5b506105366004803603602081101561050a57600080fd5b81019080803573ffffffffffffffffffffffffffffffffffffffff169060200190929190505050611266565b005b34801561054457600080fd5b5061054d611439565b604051808215151515815260200191505060405180910390f35b34801561057357600080fd5b5061057c611454565b604051808273ffffffffffffffffffffffffffffffffffffffff1673ffffffffffffffffffffffffffffffffffffffff16815260200191505060405180910390f35b3480156105ca57600080fd5b506105d3611479565b005b3480156105e157600080fd5b50610624600480360360208110156105f857600080fd5b81019080803573ffffffffffffffffffffffffffffffffffffffff169060200190929190505050613ee0565b604051808215151515815260200191505060405180910390f35b34801561064a57600080fd5b50610a01600480360360e081101561066157600080fd5b810190808035906020019064010000000081111561067e57600080fd5b82018360208201111561069057600080fd5b803590602001918460018302840111640100000000831117156106b257600080fd5b91908080601f016020809104026020016040519081016040528093929190818152602001838380828437600081840152601f19601f8201169050808301925050505050505091929192908035906020019064010000000081111561071557600080fd5b82018360208201111561072757600080fd5b8035906020019184600183028401116401000000008311171561074957600080fd5b91908080601f016020809104026020016040519081016040528093929190818152602001838380828437600081840152601f19601f820116905080830192505050505050509192919290803590602001906401000000008111156107ac57600080fd5b8201836020820111156107be57600080fd5b803590602001918460018302840111640100000000831117156107e057600080fd5b91908080601f016020809104026020016040519081016040528093929190818152602001838380828437600081840152601f19601f8201169050808301925050505050505091929192908035906020019064010000000081111561084357600080fd5b82018360208201111561085557600080fd5b8035906020019184600183028401116401000000008311171561087757600080fd5b91908080601f016020809104026020016040519081016040528093929190818152602001838380828437600081840152601f19601f82011690508083019250505050505050919291929080359060200190929190803590602001906401000000008111156108e457600080fd5b8201836020820111156108f657600080fd5b8035906020019184600183028401116401000000008311171561091857600080fd5b91908080601f016020809104026020016040519081016040528093929190818152602001838380828437600081840152601f19601f8201169050808301925050505050505091929192908035906020019064010000000081111561097b57600080fd5b82018360208201111561098d57600080fd5b803590602001918460018302840111640100000000831117156109af57600080fd5b91908080601f016020809104026020016040519081016040528093929190818152602001838380828437600081840152601f19601f820116905080830192505050505050509192919290505050613f00565b005b348015610a0f57600080fd5b50610a5260048036036020811015610a2657600080fd5b81019080803573ffffffffffffffffffffffffffffffffffffffff169060200190929190505050614108565b005b348015610a6057600080fd5b50610a696142dc565b6040518082815260200191505060405180910390f35b348015610a8b57600080fd5b50610b4560048036036020811015610aa257600080fd5b8101908080359060200190640100000000811115610abf57600080fd5b820183602082011115610ad157600080fd5b80359060200191846001830284011164010000000083111715610af357600080fd5b91908080601f016020809104026020016040519081016040528093929190818152602001838380828437600081840152601f19601f8201169050808301925050505050505091929192905050506142e2565b6040518082815260200191505060405180910390f35b348015610b6757600080fd5b50610b7061430e565b604051808273ffffffffffffffffffffffffffffffffffffffff1673ffffffffffffffffffffffffffffffffffffffff16815260200191505060405180910390f35b610bba611439565b1515610c2e576040517f08c379a00000000000000000000000000000000000000000000000000000000081526004018080602001828103825260148152602001807f5468697320766f746520697320636c6f7365642e00000000000000000000000081525060200191505060405180910390fd5b600360003373ffffffffffffffffffffffffffffffffffffffff1673ffffffffffffffffffffffffffffffffffffffff16815260200190815260200160002060009054906101000a900460ff16151515610cf0576040517f08c379a00000000000000000000000000000000000000000000000000000000081526004018080602001828103825260118152602001807f596f7520616c726561647920766f74656400000000000000000000000000000081525060200191505060405180910390fd5b600081118015610d0257506005548111155b1515610d9c576040517f08c379a00000000000000000000000000000000000000000000000000000000081526004018080602001828103825260218152602001807f506c6561736520766f746520746f20612076616c69642063616e64696461746581526020017f210000000000000000000000000000000000000000000000000000000000000081525060400191505060405180910390fd5b6001600360003373ffffffffffffffffffffffffffffffffffffffff1673ffffffffffffffffffffffffffffffffffffffff16815260200190815260200160002060006101000a81548160ff0219169083151502179055506004600082815260200190815260200160002060080160008154809291906001019190505550807ffff3c900d938d21d0990d786e819f29b8d05c1ef587b462b939609625b684b1660405160405180910390a250565b60006007544211905090565b60055481565b6004602052806000526040600020600091509050806000015490806001018054600181600116156101000203166002900480601f016020809104026020016040519081016040528092919081815260200182805460018160011615610100020316600290048015610f0e5780601f10610ee357610100808354040283529160200191610f0e565b820191906000526020600020905b815481529060010190602001808311610ef157829003601f168201915b505050505090806002018054600181600116156101000203166002900480601f016020809104026020016040519081016040528092919081815260200182805460018160011615610100020316600290048015610fac5780601f10610f8157610100808354040283529160200191610fac565b820191906000526020600020905b815481529060010190602001808311610f8f57829003601f168201915b505050505090806003018054600181600116156101000203166002900480601f01602080910402602001604051908101604052809291908181526020018280546001816001161561010002031660029004801561104a5780601f1061101f5761010080835404028352916020019161104a565b820191906000526020600020905b81548152906001019060200180831161102d57829003601f168201915b505050505090806004018054600181600116156101000203166002900480601f0160208091040260200160405190810160405280929190818152602001828054600181600116156101000203166002900480156110e85780601f106110bd576101008083540402835291602001916110e8565b820191906000526020600020905b8154815290600101906020018083116110cb57829003601f168201915b505050505090806005015490806006018054600181600116156101000203166002900480601f01602080910402602001604051908101604052809291908181526020018280546001816001161561010002031660029004801561118c5780601f106111615761010080835404028352916020019161118c565b820191906000526020600020905b81548152906001019060200180831161116f57829003601f168201915b505050505090806007018054600181600116156101000203166002900480601f01602080910402602001604051908101604052809291908181526020018280546001816001161561010002031660029004801561122a5780601f106111ff5761010080835404028352916020019161122a565b820191906000526020600020905b81548152906001019060200180831161120d57829003601f168201915b5050505050908060080154905089565b60075481565b600260009054906101000a900473ffffffffffffffffffffffffffffffffffffffff1681565b6000809054906101000a900473ffffffffffffffffffffffffffffffffffffffff1673ffffffffffffffffffffffffffffffffffffffff163373ffffffffffffffffffffffffffffffffffffffff1614151561132a576040517f08c379a00000000000000000000000000000000000000000000000000000000081526004018080602001828103825260168152602001807f4d757374206265206f776e657220616464726573732e0000000000000000000081525060200191505060405180910390fd5b600073ffffffffffffffffffffffffffffffffffffffff168173ffffffffffffffffffffffffffffffffffffffff16141515156113f5576040517f08c379a00000000000000000000000000000000000000000000000000000000081526004018080602001828103825260268152602001807f5468652061646d696e6973747261746f722063616e6e6f742073657420746f2081526020017f656d7074792e000000000000000000000000000000000000000000000000000081525060400191505060405180910390fd5b80600160006101000a81548173ffffffffffffffffffffffffffffffffffffffff021916908373ffffffffffffffffffffffffffffffffffffffff16021790555050565b6000600654421015801561144f57506007544211155b905090565b6000809054906101000a900473ffffffffffffffffffffffffffffffffffffffff1681565b6000809054906101000a900473ffffffffffffffffffffffffffffffffffffffff1673ffffffffffffffffffffffffffffffffffffffff163373ffffffffffffffffffffffffffffffffffffffff1614151561153d576040517f08c379a00000000000000000000000000000000000000000000000000000000081526004018080602001828103825260168152602001807f4d757374206265206f776e657220616464726573732e0000000000000000000081525060200191505060405180910390fd5b6116b26040805190810160405280600681526020017f31303030303100000000000000000000000000000000000000000000000000008152506040805190810160405280600c81526020017f5468656f204570737465696e00000000000000000000000000000000000000008152506040805190810160405280600981526020017f507265736964656e740000000000000000000000000000000000000000000000815250606060405190810160405280602181526020017f4261736562616c6c204f7065726174696f6e732c204368696361676f2043756281526020017f730000000000000000000000000000000000000000000000000000000000000081525060016040805190810160405280600281526020017f55530000000000000000000000000000000000000000000000000000000000008152506040805190810160405280600a81526020017f3130303030312e706e6700000000000000000000000000000000000000000000815250613f00565b6118006040805190810160405280600681526020017f31303030303200000000000000000000000000000000000000000000000000008152506040805190810160405280600781526020017f4a61636b204d61000000000000000000000000000000000000000000000000008152506040805190810160405280601281526020017f4578656375746976652043686169726d616e00000000000000000000000000008152506040805190810160405280600d81526020017f416c69626162612047726f75700000000000000000000000000000000000000081525060016040805190810160405280600281526020017f434e0000000000000000000000000000000000000000000000000000000000008152506040805190810160405280600a81526020017f3130303030322e706e6700000000000000000000000000000000000000000000815250613f00565b6119506040805190810160405280600681526020017f31303030303300000000000000000000000000000000000000000000000000008152506040805190810160405280600d81526020017f506f7065204672616e6369732000000000000000000000000000000000000000815250606060405190810160405280602181526020017f48656164206f662074686520526f6d616e20436174686f6c696320436875726381526020017f6800000000000000000000000000000000000000000000000000000000000000815250602060405190810160405280600081525060016040805190810160405280600281526020017f55530000000000000000000000000000000000000000000000000000000000008152506040805190810160405280600a81526020017f3130303030332e706e6700000000000000000000000000000000000000000000815250613f00565b611a9e6040805190810160405280600681526020017f31303030303400000000000000000000000000000000000000000000000000008152506040805190810160405280600d81526020017f4d656c696e6461204761746573000000000000000000000000000000000000008152506040805190810160405280600781526020017f436f6368616972000000000000000000000000000000000000000000000000008152506040805190810160405280601f81526020017f42696c6c2026204d656c696e646120476174657320466f756e646174696f6e0081525060006040805190810160405280600281526020017f55530000000000000000000000000000000000000000000000000000000000008152506040805190810160405280600a81526020017f3130303030342e706e6700000000000000000000000000000000000000000000815250613f00565b611bec6040805190810160405280600681526020017f31303030303500000000000000000000000000000000000000000000000000008152506040805190810160405280600a81526020017f4a6566662042657a6f73000000000000000000000000000000000000000000008152506040805190810160405280600f81526020017f466f756e64657220616e642043454f00000000000000000000000000000000008152506040805190810160405280600681526020017f416d617a6f6e000000000000000000000000000000000000000000000000000081525060016040805190810160405280600281526020017f55530000000000000000000000000000000000000000000000000000000000008152506040805190810160405280600a81526020017f3130303030352e706e6700000000000000000000000000000000000000000000815250613f00565b611d156040805190810160405280600681526020017f31303030303600000000000000000000000000000000000000000000000000008152506040805190810160405280600c81526020017f4176612044755665726e617900000000000000000000000000000000000000008152506040805190810160405280601e81526020017f46696c6d204469726563746f7220616e642053637265656e7772697465720000815250602060405190810160405280600081525060006040805190810160405280600281526020017f55530000000000000000000000000000000000000000000000000000000000008152506040805190810160405280600a81526020017f3130303030362e706e6700000000000000000000000000000000000000000000815250613f00565b611e3e6040805190810160405280600681526020017f31303030303700000000000000000000000000000000000000000000000000008152506040805190810160405280600d81526020017f482e522e204d634d6173746572000000000000000000000000000000000000008152506040805190810160405280601e81526020017f552e532e204e6174696f6e616c20536563757269747920416476697365720000815250602060405190810160405280600081525060016040805190810160405280600281526020017f55530000000000000000000000000000000000000000000000000000000000008152506040805190810160405280600a81526020017f3130303030372e706e6700000000000000000000000000000000000000000000815250613f00565b611f8c6040805190810160405280600681526020017f31303030303800000000000000000000000000000000000000000000000000008152506040805190810160405280600c81526020017f5473616920496e672d57656e00000000000000000000000000000000000000008152506040805190810160405280600881526020017f476f7665726e6f720000000000000000000000000000000000000000000000008152506040805190810160405280600681526020017f54616977616e000000000000000000000000000000000000000000000000000081525060006040805190810160405280600281526020017f434e0000000000000000000000000000000000000000000000000000000000008152506040805190810160405280600a81526020017f3130303030382e706e6700000000000000000000000000000000000000000000815250613f00565b6120da6040805190810160405280600681526020017f31303030303900000000000000000000000000000000000000000000000000008152506040805190810160405280600b81526020017f4a6f686e204d634361696e0000000000000000000000000000000000000000008152506040805190810160405280600b81526020017f552e532053656e61746f720000000000000000000000000000000000000000008152506040805190810160405280600781526020017f4172697a6f6e610000000000000000000000000000000000000000000000000081525060016040805190810160405280600281526020017f55530000000000000000000000000000000000000000000000000000000000008152506040805190810160405280600a81526020017f3130303030392e706e6700000000000000000000000000000000000000000000815250613f00565b6122286040805190810160405280600681526020017f31303030313000000000000000000000000000000000000000000000000000008152506040805190810160405280600d81526020017f416e67656c61204d65726b656c000000000000000000000000000000000000008152506040805190810160405280600a81526020017f4368616e63656c6c6f72000000000000000000000000000000000000000000008152506040805190810160405280600781526020017f4765726d616e790000000000000000000000000000000000000000000000000081525060006040805190810160405280600281526020017f44450000000000000000000000000000000000000000000000000000000000008152506040805190810160405280600a81526020017f3130303031302e706e6700000000000000000000000000000000000000000000815250613f00565b6123766040805190810160405280600681526020017f31303030313100000000000000000000000000000000000000000000000000008152506040805190810160405280600d81526020017f4c6542726f6e204a616d657320000000000000000000000000000000000000008152506040805190810160405280600d81526020017f536d616c6c20466f7277617264000000000000000000000000000000000000008152506040805190810160405280601381526020017f436c6576656c616e6420436176616c696572730000000000000000000000000081525060016040805190810160405280600281526020017f55530000000000000000000000000000000000000000000000000000000000008152506040805190810160405280600a81526020017f3130303031312e706e6700000000000000000000000000000000000000000000815250613f00565b6124c46040805190810160405280600681526020017f31303030313200000000000000000000000000000000000000000000000000008152506040805190810160405280600b81526020017f4a6f686e204b61736963680000000000000000000000000000000000000000008152506040805190810160405280600881526020017f476f7665726e6f720000000000000000000000000000000000000000000000008152506040805190810160405280600481526020017f4f68696f0000000000000000000000000000000000000000000000000000000081525060016040805190810160405280600281526020017f55530000000000000000000000000000000000000000000000000000000000008152506040805190810160405280600a81526020017f3130303031322e706e6700000000000000000000000000000000000000000000815250613f00565b6126126040805190810160405280600681526020017f31303030313300000000000000000000000000000000000000000000000000008152506040805190810160405280600c81526020017f4a6f686e2044656c616e657900000000000000000000000000000000000000008152506040805190810160405280601381526020017f552e532e20526570726573656e746174697665000000000000000000000000008152506040805190810160405280600881526020017f4d6172796c616e6400000000000000000000000000000000000000000000000081525060016040805190810160405280600281526020017f55530000000000000000000000000000000000000000000000000000000000008152506040805190810160405280600a81526020017f3130303031332e706e6700000000000000000000000000000000000000000000815250613f00565b6127606040805190810160405280600681526020017f31303030313400000000000000000000000000000000000000000000000000008152506040805190810160405280601681526020017f48656c6c652054686f726e696e672d5363686d696474000000000000000000008152506040805190810160405280600381526020017f43454f00000000000000000000000000000000000000000000000000000000008152506040805190810160405280601f81526020017f5361766520746865204368696c6472656e20496e7465726e6174696f6e616c0081525060006040805190810160405280600281526020017f55530000000000000000000000000000000000000000000000000000000000008152506040805190810160405280600a81526020017f3130303031342e706e6700000000000000000000000000000000000000000000815250613f00565b6128d56040805190810160405280600681526020017f31303030313500000000000000000000000000000000000000000000000000008152506040805190810160405280601081526020017f4b6174686172696e6520486179686f65000000000000000000000000000000008152506040805190810160405280600881526020017f4469726563746f72000000000000000000000000000000000000000000000000815250606060405190810160405280602181526020017f436c696d61746520536369656e63652043656e7465722c20546578617354656381526020017f680000000000000000000000000000000000000000000000000000000000000081525060006040805190810160405280600281526020017f47420000000000000000000000000000000000000000000000000000000000008152506040805190810160405280600a81526020017f3130303031352e706e6700000000000000000000000000000000000000000000815250613f00565b612a236040805190810160405280600681526020017f31303030313600000000000000000000000000000000000000000000000000008152506040805190810160405280600f81526020017f427279616e2053746576656e736f6e00000000000000000000000000000000008152506040805190810160405280601281526020017f457865637574697665204469726563746f7200000000000000000000000000008152506040805190810160405280601881526020017f457175616c204a75737469636520496e6974696174697665000000000000000081525060016040805190810160405280600281526020017f434e0000000000000000000000000000000000000000000000000000000000008152506040805190810160405280600a81526020017f3130303031362e706e6700000000000000000000000000000000000000000000815250613f00565b612b716040805190810160405280600681526020017f31303030313700000000000000000000000000000000000000000000000000008152506040805190810160405280600c81526020017f4a616e65742059656c6c656e00000000000000000000000000000000000000008152506040805190810160405280600581526020017f43686169720000000000000000000000000000000000000000000000000000008152506040805190810160405280600f81526020017f4665646572616c2052657365727665000000000000000000000000000000000081525060006040805190810160405280600281526020017f4a500000000000000000000000000000000000000000000000000000000000008152506040805190810160405280600a81526020017f3130303031372e706e6700000000000000000000000000000000000000000000815250613f00565b612cbf6040805190810160405280600681526020017f31303030313800000000000000000000000000000000000000000000000000008152506040805190810160405280600c81526020017f427269616e20436865736b7900000000000000000000000000000000000000008152506040805190810160405280601981526020017f43454f20616e642048656164206f6620436f6d6d756e697479000000000000008152506040805190810160405280600681526020017f416972626e62000000000000000000000000000000000000000000000000000081525060016040805190810160405280600281526020017f55530000000000000000000000000000000000000000000000000000000000008152506040805190810160405280600a81526020017f3130303031382e706e6700000000000000000000000000000000000000000000815250613f00565b612e0d6040805190810160405280600681526020017f31303030313900000000000000000000000000000000000000000000000000008152506040805190810160405280600d81526020017f53616d616e7468612042656520000000000000000000000000000000000000008152506040805190810160405280601b81526020017f486f737420616e64204578656375746976652050726f647563657200000000008152506040805190810160405280600c81526020017f46756c6c2046726f6e74616c000000000000000000000000000000000000000081525060006040805190810160405280600281526020017f55530000000000000000000000000000000000000000000000000000000000008152506040805190810160405280600a81526020017f3130303031392e706e6700000000000000000000000000000000000000000000815250613f00565b612f5b6040805190810160405280600681526020017f31303030323000000000000000000000000000000000000000000000000000008152506040805190810160405280600b81526020017f5061756c20506f6c6d616e0000000000000000000000000000000000000000008152506040805190810160405280600381526020017f43454f00000000000000000000000000000000000000000000000000000000008152506040805190810160405280600881526020017f556e696c6576657200000000000000000000000000000000000000000000000081525060016040805190810160405280600281526020017f55530000000000000000000000000000000000000000000000000000000000008152506040805190810160405280600a81526020017f3130303032302e706e6700000000000000000000000000000000000000000000815250613f00565b6130a96040805190810160405280600681526020017f31303030323100000000000000000000000000000000000000000000000000008152506040805190810160405280600c81526020017f4a6f686e20526f626572747300000000000000000000000000000000000000008152506040805190810160405280600d81526020017f4368696566204a757374696365000000000000000000000000000000000000008152506040805190810160405280601281526020017f552e532e2053757072656d6520436f757274000000000000000000000000000081525060016040805190810160405280600281526020017f55530000000000000000000000000000000000000000000000000000000000008152506040805190810160405280600a81526020017f3130303032312e706e6700000000000000000000000000000000000000000000815250613f00565b6131f76040805190810160405280600681526020017f31303030323200000000000000000000000000000000000000000000000000008152506040805190810160405280600e81526020017f4a616e65c3a920486172746561750000000000000000000000000000000000008152506040805190810160405280600f81526020017f4368696566206f6620506f6c69636500000000000000000000000000000000008152506040805190810160405280600b81526020017f4d696e6e6561706f6c697300000000000000000000000000000000000000000081525060006040805190810160405280600281526020017f55530000000000000000000000000000000000000000000000000000000000008152506040805190810160405280600a81526020017f3130303032322e706e6700000000000000000000000000000000000000000000815250613f00565b6133456040805190810160405280600681526020017f31303030323300000000000000000000000000000000000000000000000000008152506040805190810160405280600a81526020017f4a6f6520426964656e20000000000000000000000000000000000000000000008152506040805190810160405280600681526020017f466f726d657200000000000000000000000000000000000000000000000000008152506040805190810160405280601381526020017f552e532e205669636520507265736964656e740000000000000000000000000081525060016040805190810160405280600281526020017f55530000000000000000000000000000000000000000000000000000000000008152506040805190810160405280600a81526020017f3130303032332e706e6700000000000000000000000000000000000000000000815250613f00565b6134936040805190810160405280600681526020017f31303030323400000000000000000000000000000000000000000000000000008152506040805190810160405280600c81526020017f5a68616e67205275696d696e00000000000000000000000000000000000000008152506040805190810160405280600381526020017f43454f00000000000000000000000000000000000000000000000000000000008152506040805190810160405280600b81526020017f48616965722047726f757000000000000000000000000000000000000000000081525060016040805190810160405280600281526020017f434e0000000000000000000000000000000000000000000000000000000000008152506040805190810160405280600a81526020017f3130303032342e706e6700000000000000000000000000000000000000000000815250613f00565b6135e16040805190810160405280600681526020017f31303030323500000000000000000000000000000000000000000000000000008152506040805190810160405280601081526020017f4361726d656e20417269737465677569000000000000000000000000000000008152506040805190810160405280601181526020017f486f737420616e64205265706f727465720000000000000000000000000000008152506040805190810160405280601281526020017f417269737465677569204e6f746963696173000000000000000000000000000081525060006040805190810160405280600281526020017f4d580000000000000000000000000000000000000000000000000000000000008152506040805190810160405280600a81526020017f3130303032352e706e6700000000000000000000000000000000000000000000815250613f00565b61372f6040805190810160405280600681526020017f31303030323600000000000000000000000000000000000000000000000000008152506040805190810160405280601681526020017f4172756e646861746920426861747461636861727961000000000000000000008152506040805190810160405280600881526020017f43686169726d616e0000000000000000000000000000000000000000000000008152506040805190810160405280601381526020017f53746174652042616e6b206f6620496e6469610000000000000000000000000081525060006040805190810160405280600281526020017f494e0000000000000000000000000000000000000000000000000000000000008152506040805190810160405280600a81526020017f3130303032362e706e6700000000000000000000000000000000000000000000815250613f00565b6138586040805190810160405280600681526020017f31303030323700000000000000000000000000000000000000000000000000008152506040805190810160405280600781526020017f5368616b697261000000000000000000000000000000000000000000000000008152506040805190810160405280600681526020017f53696e6765720000000000000000000000000000000000000000000000000000815250602060405190810160405280600081525060006040805190810160405280600281526020017f55530000000000000000000000000000000000000000000000000000000000008152506040805190810160405280600a81526020017f3130303032372e706e6700000000000000000000000000000000000000000000815250613f00565b6139a66040805190810160405280600681526020017f31303030323800000000000000000000000000000000000000000000000000008152506040805190810160405280600c81526020017f52616a2050616e6a6162692000000000000000000000000000000000000000008152506040805190810160405280600381526020017f43454f00000000000000000000000000000000000000000000000000000000008152506040805190810160405280601081526020017f4c617374204d696c65204865616c74680000000000000000000000000000000081525060016040805190810160405280600281526020017f55530000000000000000000000000000000000000000000000000000000000008152506040805190810160405280600a81526020017f3130303032382e706e6700000000000000000000000000000000000000000000815250613f00565b613af46040805190810160405280600681526020017f31303030323900000000000000000000000000000000000000000000000000008152506040805190810160405280601481526020017f537665746c616e612047616e6e7573686b696e610000000000000000000000008152506040805190810160405280600781526020017f466f756e646572000000000000000000000000000000000000000000000000008152506040805190810160405280601d81526020017f436974697a656e7320417373697374616e636520436f6d6d697474656500000081525060006040805190810160405280600281526020017f52550000000000000000000000000000000000000000000000000000000000008152506040805190810160405280600a81526020017f3130303032392e706e6700000000000000000000000000000000000000000000815250613f00565b613c426040805190810160405280600681526020017f31303030333000000000000000000000000000000000000000000000000000008152506040805190810160405280600981526020017f456c6f6e204d75736b00000000000000000000000000000000000000000000008152506040805190810160405280600381526020017f43454f00000000000000000000000000000000000000000000000000000000008152506040805190810160405280601081526020017f5465736c6120616e64205370616365580000000000000000000000000000000081525060016040805190810160405280600281526020017f55530000000000000000000000000000000000000000000000000000000000008152506040805190810160405280600a81526020017f3130303033302e706e6700000000000000000000000000000000000000000000815250613f00565b613d906040805190810160405280600681526020017f31303030333100000000000000000000000000000000000000000000000000008152506040805190810160405280600f81526020017f4a757374696e20547275646561752000000000000000000000000000000000008152506040805190810160405280600e81526020017f5072696d65204d696e69737465720000000000000000000000000000000000008152506040805190810160405280600681526020017f43616e616461000000000000000000000000000000000000000000000000000081525060016040805190810160405280600281526020017f43410000000000000000000000000000000000000000000000000000000000008152506040805190810160405280600a81526020017f3130303033312e706e6700000000000000000000000000000000000000000000815250613f00565b613ede6040805190810160405280600681526020017f31303030333200000000000000000000000000000000000000000000000000008152506040805190810160405280601881526020017f526562656363612052696368617264732d4b6f7274756d2000000000000000008152506040805190810160405280600981526020017f50726f666573736f7200000000000000000000000000000000000000000000008152506040805190810160405280600f81526020017f5269636520556e6976657273697479000000000000000000000000000000000081525060006040805190810160405280600281526020017f55530000000000000000000000000000000000000000000000000000000000008152506040805190810160405280600a81526020017f3130303033322e706e6700000000000000000000000000000000000000000000815250613f00565b565b60036020528060005260406000206000915054906101000a900460ff1681565b6000809054906101000a900473ffffffffffffffffffffffffffffffffffffffff1673ffffffffffffffffffffffffffffffffffffffff163373ffffffffffffffffffffffffffffffffffffffff16141515613fc4576040517f08c379a00000000000000000000000000000000000000000000000000000000081526004018080602001828103825260168152602001807f4d757374206265206f776e657220616464726573732e0000000000000000000081525060200191505060405180910390fd5b6005600081548092919060010191905055506101206040519081016040528060055481526020018881526020018781526020018681526020018581526020018481526020018381526020018281526020016000815250600460006005548152602001908152602001600020600082015181600001556020820151816001019080519060200190614055929190614334565b506040820151816002019080519060200190614072929190614334565b50606082015181600301908051906020019061408f929190614334565b5060808201518160040190805190602001906140ac929190614334565b5060a0820151816005015560c08201518160060190805190602001906140d3929190614334565b5060e08201518160070190805190602001906140f0929190614334565b50610100820151816008015590505050505050505050565b600160009054906101000a900473ffffffffffffffffffffffffffffffffffffffff1673ffffffffffffffffffffffffffffffffffffffff163373ffffffffffffffffffffffffffffffffffffffff161415156141cd576040517f08c379a000000000000000000000000000000000000000000000000000000000815260040180806020018281038252601e8152602001807f4d7573742062652061646d696e6973747261746f7220616464726573732e000081525060200191505060405180910390fd5b600073ffffffffffffffffffffffffffffffffffffffff168173ffffffffffffffffffffffffffffffffffffffff1614151515614298576040517f08c379a00000000000000000000000000000000000000000000000000000000081526004018080602001828103825260218152602001807f546865206f70657261746f722063616e6e6f742073657420746f20656d70747981526020017f2e0000000000000000000000000000000000000000000000000000000000000081525060400191505060405180910390fd5b80600260006101000a81548173ffffffffffffffffffffffffffffffffffffffff021916908373ffffffffffffffffffffffffffffffffffffffff16021790555050565b60065481565b60006060829050600081511415614300576000600102915050614309565b60208301519150505b919050565b600160009054906101000a900473ffffffffffffffffffffffffffffffffffffffff1681565b828054600181600116156101000203166002900490600052602060002090601f016020900481019282601f1061437557805160ff19168380011785556143a3565b828001600101855582156143a3579182015b828111156143a2578251825591602001919060010190614387565b5b5090506143b091906143b4565b5090565b6143d691905b808211156143d25760008160009055506001016143ba565b5090565b9056fea165627a7a72305820e68debddb82493d92785e4ce38fbd8e06885ceeb3b6cc8db0e128e442df0ab830029",
  "source": "pragma solidity ^0.5.0;\r\n\r\ncontract Election {\r\n    address public owner;\r\n    address public admin;\r\n    address public operator;\r\n\r\n    struct Candidate {\r\n        uint id;\r\n        string gid;\r\n        string name;\r\n        string title;\r\n        string affiliation;\r\n        uint gender;\r\n        string country;\r\n        string picurl;\r\n        uint voteCount;\r\n    }\r\n\r\n    // Store accounts that have voted\r\n    mapping(address => bool) public voters;\r\n    mapping(uint => Candidate) public candidates;\r\n\r\n    uint public candidatesCount;\r\n    uint256 public openingTime;\r\n    uint256 public closingTime;\r\n\r\n    modifier onlyOwner {\r\n        require(msg.sender == owner, \"Must be owner address.\");\r\n        _;\r\n    }\r\n\r\n    modifier onlyAdmin {\r\n        require(msg.sender == admin, \"Must be administrator address.\");\r\n        _;\r\n    }\r\n\r\n    modifier onlyOperator {\r\n        require(msg.sender == operator, \"Must be operator address.\");\r\n        _;\r\n    }\r\n\r\n    function setAdmin(address newAdmin) external onlyOwner {\r\n        require(newAdmin != address(0), \"The administrator cannot set to empty.\");\r\n        admin = newAdmin;\r\n    }\r\n\r\n    function setOperator(address newOperator) external onlyAdmin {\r\n        require(newOperator != address(0), \"The operator cannot set to empty.\");\r\n        operator = newOperator;\r\n    }\r\n\r\n    modifier onlyWhileOpening {\r\n        require(isOpening(), \"This vote is closed.\");\r\n        _;\r\n    }\r\n\r\n    function isOpening() public view returns (bool) {\r\n        /* solium-disable-next-line */\r\n        return block.timestamp >= openingTime && block.timestamp <= closingTime;\r\n    }\r\n\r\n    function hasClosed() public view returns (bool) {\r\n        /* solium-disable-next-line */\r\n        return block.timestamp > closingTime;\r\n    }\r\n\r\n    // voted event\r\n    event votedEvent (\r\n        uint indexed _candidateId\r\n    );\r\n\r\n    /**\r\n     * @dev Constructor, takes vote opening and closing times, and contract owner.\r\n     */\r\n    constructor() public {\r\n        owner = msg.sender;\r\n\r\n         /* solium-disable-next-line */\r\n        openingTime = now;\r\n\r\n         /* solium-disable-next-line */\r\n        closingTime = block.timestamp + 3650 days;\r\n    }\r\n\r\n    function addDefaultCandidates() public onlyOwner {\r\n        addCandidate(\"100001\", \"Theo Epstein\", \"President\", \"Baseball Operations, Chicago Cubs\", 1, \"US\", \"100001.png\");\r\n        addCandidate(\"100002\", \"Jack Ma\", \"Executive Chairman\", \"Alibaba Group\", 1, \"CN\", \"100002.png\"); \r\n        addCandidate(\"100003\", \"Pope Francis \", \"Head of the Roman Catholic Church\", \"\", 1, \"US\", \"100003.png\");        \r\n        addCandidate(\"100004\", \"Melinda Gates\", \"Cochair\", \"Bill & Melinda Gates Foundation\", 0, \"US\", \"100004.png\");\r\n        addCandidate(\"100005\", \"Jeff Bezos\", \"Founder and CEO\", \"Amazon\", 1, \"US\", \"100005.png\");\r\n        addCandidate(\"100006\", \"Ava DuVernay\", \"Film Director and Screenwriter\", \"\", 0, \"US\", \"100006.png\"); \r\n        addCandidate(\"100007\", \"H.R. McMaster\", \"U.S. National Security Adviser\", \"\", 1, \"US\", \"100007.png\");\r\n        addCandidate(\"100008\", \"Tsai Ing-Wen\", \"Governor\", \"Taiwan\", 0, \"CN\", \"100008.png\");\r\n        addCandidate(\"100009\", \"John McCain\", \"U.S Senator\", \"Arizona\", 1, \"US\", \"100009.png\");\r\n        addCandidate(\"100010\", \"Angela Merkel\", \"Chancellor\", \"Germany\", 0, \"DE\", \"100010.png\");\r\n        addCandidate(\"100011\", \"LeBron James \", \"Small Forward\", \"Cleveland Cavaliers\", 1, \"US\", \"100011.png\");\r\n        addCandidate(\"100012\", \"John Kasich\", \"Governor\", \"Ohio\", 1, \"US\", \"100012.png\"); \r\n        addCandidate(\"100013\", \"John Delaney\", \"U.S. Representative\", \"Maryland\", 1, \"US\", \"100013.png\");\r\n        addCandidate(\"100014\", \"Helle Thorning-Schmidt\", \"CEO\", \"Save the Children International\", 0, \"US\", \"100014.png\");\r\n        addCandidate(\"100015\", \"Katharine Hayhoe\", \"Director\", \"Climate Science Center, TexasTech\", 0, \"GB\", \"100015.png\");\r\n        addCandidate(\"100016\", \"Bryan Stevenson\", \"Executive Director\", \"Equal Justice Initiative\", 1, \"CN\", \"100016.png\");\r\n        addCandidate(\"100017\", \"Janet Yellen\", \"Chair\", \"Federal Reserve\", 0, \"JP\", \"100017.png\");\t\t\r\n        addCandidate(\"100018\", \"Brian Chesky\", \"CEO and Head of Community\", \"Airbnb\", 1, \"US\", \"100018.png\");\r\n        addCandidate(\"100019\", \"Samantha Bee \", \"Host and Executive Producer\", \"Full Frontal\", 0, \"US\", \"100019.png\");\r\n        addCandidate(\"100020\", \"Paul Polman\", \"CEO\", \"Unilever\", 1, \"US\", \"100020.png\");\r\n        addCandidate(\"100021\", \"John Roberts\", \"Chief Justice\", \"U.S. Supreme Court\", 1, \"US\", \"100021.png\");\r\n        addCandidate(\"100022\", \"Jane Harteau\", \"Chief of Police\", \"Minneapolis\", 0, \"US\", \"100022.png\");\r\n        addCandidate(\"100023\", \"Joe Biden \", \"Former\", \"U.S. Vice President\", 1, \"US\", \"100023.png\");\r\n        addCandidate(\"100024\", \"Zhang Ruimin\", \"CEO\", \"Haier Group\", 1, \"CN\", \"100024.png\");\r\n        addCandidate(\"100025\", \"Carmen Aristegui\", \"Host and Reporter\", \"Aristegui Noticias\", 0, \"MX\", \"100025.png\");\r\n        addCandidate(\"100026\", \"Arundhati Bhattacharya\", \"Chairman\", \"State Bank of India\", 0, \"IN\", \"100026.png\");\r\n        addCandidate(\"100027\", \"Shakira\", \"Singer\", \"\", 0, \"US\", \"100027.png\");\r\n        addCandidate(\"100028\", \"Raj Panjabi \", \"CEO\", \"Last Mile Health\", 1, \"US\", \"100028.png\");\r\n        addCandidate(\"100029\", \"Svetlana Gannushkina\", \"Founder\", \"Citizens Assistance Committee\", 0, \"RU\", \"100029.png\");\r\n        addCandidate(\"100030\", \"Elon Musk\", \"CEO\", \"Tesla and SpaceX\", 1, \"US\", \"100030.png\");\r\n        addCandidate(\"100031\", \"Justin Trudeau \", \"Prime Minister\", \"Canada\", 1, \"CA\", \"100031.png\");\r\n        addCandidate(\"100032\", \"Rebecca Richards-Kortum \", \"Professor\", \"Rice University\", 0, \"US\", \"100032.png\");\r\n    }\r\n\r\n    /* solium-disable-next-line */\r\n    function addCandidate (string memory gid, string memory name, string memory title, string memory affiliation, uint gender, string memory country, string memory picurl) public onlyOwner {\r\n        candidatesCount ++;\r\n        candidates[candidatesCount] = Candidate(candidatesCount, gid, name, title, affiliation, gender, country, picurl, 0);\r\n    }\r\n\r\n    function vote (uint candidateId) public onlyWhileOpening {\r\n        // require that they haven't voted before\r\n        require(!voters[msg.sender], \"You already voted\");\r\n\r\n        // require a valid candidate\r\n        require(candidateId > 0 && candidateId <= candidatesCount, \"Please vote to a valid candidate!\");\r\n\r\n        // record that voter has voted\r\n        voters[msg.sender] = true;\r\n\r\n        // update candidate vote Count\r\n        candidates[candidateId].voteCount ++;\r\n\r\n        // trigger voted event\r\n        emit votedEvent(candidateId);\r\n    }\r\n\r\n    function stringToBytes32(string memory source) public pure returns(bytes32 result) {\r\n        bytes memory tempEmptyStringTest = bytes(source);\r\n        if (tempEmptyStringTest.length == 0) {\r\n            return 0x0;\r\n        }\r\n\r\n        /* solium-disable-next-line */\r\n        assembly {\r\n            result:= mload(add(source, 32))\r\n        }\r\n    }\r\n}",
  "sourcePath": "E:/workspace_oxygen/data/private/vue/crypto-voting-master/contracts/Election.sol",
  "compiler": {
    "name": "solc",
    "version": "0.5.0+commit.1d4f565a.Emscripten.clang"
  },
  "schemaVersion": "3.0.1",
  "updatedAt": "2019-02-20T15:02:27.129Z",
  "devdoc": {
    "methods": {
      "constructor": {
        "details": "Constructor, takes vote opening and closing times, and contract owner.\r"
      }
    }
  },
  "userdoc": {
    "methods": {}
  }
}