{
  "contractName": "ExtendDemo",
  "abi": [
    {
      "constant": false,
      "inputs": [
        {
          "name": "_x",
          "type": "uint256"
        }
      ],
      "name": "setX",
      "outputs": [],
      "payable": false,
      "stateMutability": "nonpayable",
      "type": "function"
    },
    {
      "constant": true,
      "inputs": [],
      "name": "getX",
      "outputs": [
        {
          "name": "",
          "type": "uint256"
        }
      ],
      "payable": false,
      "stateMutability": "view",
      "type": "function"
    },
    {
      "constant": false,
      "inputs": [],
      "name": "addTwo",
      "outputs": [
        {
          "name": "",
          "type": "uint256"
        }
      ],
      "payable": false,
      "stateMutability": "nonpayable",
      "type": "function"
    }
  ],
  "bytecode": "0x608060405234801561001057600080fd5b50610142806100206000396000f3fe608060405260043610610057576000357c0100000000000000000000000000000000000000000000000000000000900463ffffffff1680634018d9aa1461005c5780634d47524e146100975780635197c7aa146100c2575b600080fd5b34801561006857600080fd5b506100956004803603602081101561007f57600080fd5b81019080803590602001909291905050506100ed565b005b3480156100a357600080fd5b506100ac6100f7565b6040518082815260200191505060405180910390f35b3480156100ce57600080fd5b506100d761010d565b6040518082815260200191505060405180910390f35b8060008190555050565b6000600260008082825401925050819055905090565b6000805490509056fea165627a7a72305820ea98eab416af0660b6d6277b8c0919e3f8bb8202f46ba5b1955765030ee691560029",
  "source": "pragma solidity ^0.5.0;\n\ncontract Demo {\n  uint x;\n\n  function setX(uint _x) public {\n    x = _x;\n  }\n\n  function getX() public view returns (uint) {\n    return x;\n  }\n}\n\ncontract ExtendDemo is Demo {\n  function addTwo() public returns (uint) {\n    return x += 2;\n  }\n}\n",
  "sourcePath": "E:/workspace_oxygen/data/private/vue/crypto-voting-master/contracts/demo.sol",
  "compiler": {
    "name": "solc",
    "version": "0.5.0+commit.1d4f565a.Emscripten.clang"
  },
  "schemaVersion": "3.0.1",
  "updatedAt": "2019-02-20T15:02:27.139Z",
  "devdoc": {
    "methods": {}
  },
  "userdoc": {
    "methods": {}
  }
}