{
  "contractName": "Person",
  "abi": [
    {
      "constant": true,
      "inputs": [],
      "name": "name",
      "outputs": [
        {
          "name": "",
          "type": "string"
        }
      ],
      "payable": false,
      "stateMutability": "view",
      "type": "function"
    },
    {
      "constant": true,
      "inputs": [],
      "name": "owner",
      "outputs": [
        {
          "name": "",
          "type": "address"
        }
      ],
      "payable": false,
      "stateMutability": "view",
      "type": "function"
    },
    {
      "constant": true,
      "inputs": [],
      "name": "balance",
      "outputs": [
        {
          "name": "",
          "type": "uint256"
        }
      ],
      "payable": false,
      "stateMutability": "view",
      "type": "function"
    },
    {
      "inputs": [],
      "payable": false,
      "stateMutability": "nonpayable",
      "type": "constructor"
    },
    {
      "constant": false,
      "inputs": [
        {
          "name": "_name",
          "type": "string"
        }
      ],
      "name": "setName",
      "outputs": [],
      "payable": false,
      "stateMutability": "nonpayable",
      "type": "function"
    }
  ],
  "bytecode": "0x608060405234801561001057600080fd5b5033600160006101000a81548173ffffffffffffffffffffffffffffffffffffffff021916908373ffffffffffffffffffffffffffffffffffffffff1602179055506103e86002819055506104968061006a6000396000f3fe608060405260043610610062576000357c0100000000000000000000000000000000000000000000000000000000900463ffffffff16806306fdde03146100675780638da5cb5b146100f7578063b69ef8a81461014e578063c47f002714610179575b600080fd5b34801561007357600080fd5b5061007c610241565b6040518080602001828103825283818151815260200191508051906020019080838360005b838110156100bc5780820151818401526020810190506100a1565b50505050905090810190601f1680156100e95780820380516001836020036101000a031916815260200191505b509250505060405180910390f35b34801561010357600080fd5b5061010c6102df565b604051808273ffffffffffffffffffffffffffffffffffffffff1673ffffffffffffffffffffffffffffffffffffffff16815260200191505060405180910390f35b34801561015a57600080fd5b50610163610305565b6040518082815260200191505060405180910390f35b34801561018557600080fd5b5061023f6004803603602081101561019c57600080fd5b81019080803590602001906401000000008111156101b957600080fd5b8201836020820111156101cb57600080fd5b803590602001918460018302840111640100000000831117156101ed57600080fd5b91908080601f016020809104026020016040519081016040528093929190818152602001838380828437600081840152601f19601f82011690508083019250505050505050919291929050505061030b565b005b60008054600181600116156101000203166002900480601f0160208091040260200160405190810160405280929190818152602001828054600181600116156101000203166002900480156102d75780601f106102ac576101008083540402835291602001916102d7565b820191906000526020600020905b8154815290600101906020018083116102ba57829003601f168201915b505050505081565b600160009054906101000a900473ffffffffffffffffffffffffffffffffffffffff1681565b60025481565b600160009054906101000a900473ffffffffffffffffffffffffffffffffffffffff1673ffffffffffffffffffffffffffffffffffffffff163373ffffffffffffffffffffffffffffffffffffffff161415156103ab576040517f08c379a0000000000000000000000000000000000000000000000000000000008152600401808060200182810382526000815260200160200191505060405180910390fd5b80600090805190602001906103c19291906103c5565b5050565b828054600181600116156101000203166002900490600052602060002090601f016020900481019282601f1061040657805160ff1916838001178555610434565b82800160010185558215610434579182015b82811115610433578251825591602001919060010190610418565b5b5090506104419190610445565b5090565b61046791905b8082111561046357600081600090555060010161044b565b5090565b9056fea165627a7a7230582030f8ed777a59e23d804927f9c94cfc7f6553be83a37700bb267c490bd7e07b3e0029",
  "source": "pragma solidity ^ 0.5.0;\r\n\r\ncontract Person {\r\n    string public name;\r\n    address public owner;\r\n    uint public balance;\r\n\r\n    modifier onlyOwner() \r\n    {\r\n        require(msg.sender == owner, \"\");\r\n        _;\r\n    }\r\n\r\n    constructor () public \r\n    {\r\n        owner = msg.sender;\r\n        balance = 1000;\r\n    }\r\n\r\n    function setName(string memory _name) public onlyOwner \r\n    {\r\n        name = _name;\r\n    }\r\n}\r\n",
  "sourcePath": "E:/workspace_oxygen/data/private/vue/crypto-voting-master/contracts/Person.sol",
  "compiler": {
    "name": "solc",
    "version": "0.5.0+commit.1d4f565a.Emscripten.clang"
  },
  "schemaVersion": "3.0.1",
  "updatedAt": "2019-02-20T15:02:27.134Z",
  "devdoc": {
    "methods": {}
  },
  "userdoc": {
    "methods": {}
  }
}