{
  "contractName": "Players",
  "abi": [
    {
      "constant": true,
      "inputs": [
        {
          "name": "",
          "type": "uint256"
        }
      ],
      "name": "users",
      "outputs": [
        {
          "name": "name",
          "type": "string"
        },
        {
          "name": "status",
          "type": "bytes32"
        },
        {
          "name": "walletAddress",
          "type": "address"
        },
        {
          "name": "createdAt",
          "type": "uint256"
        },
        {
          "name": "updatedAt",
          "type": "uint256"
        }
      ],
      "payable": false,
      "stateMutability": "view",
      "type": "function"
    },
    {
      "constant": true,
      "inputs": [
        {
          "name": "",
          "type": "address"
        }
      ],
      "name": "usersIds",
      "outputs": [
        {
          "name": "",
          "type": "uint256"
        }
      ],
      "payable": false,
      "stateMutability": "view",
      "type": "function"
    },
    {
      "inputs": [],
      "payable": false,
      "stateMutability": "nonpayable",
      "type": "constructor"
    },
    {
      "anonymous": false,
      "inputs": [
        {
          "indexed": false,
          "name": "id",
          "type": "uint256"
        }
      ],
      "name": "newUserRegistered",
      "type": "event"
    },
    {
      "anonymous": false,
      "inputs": [
        {
          "indexed": false,
          "name": "id",
          "type": "uint256"
        }
      ],
      "name": "userUpdateEvent",
      "type": "event"
    },
    {
      "constant": false,
      "inputs": [
        {
          "name": "_userName",
          "type": "string"
        },
        {
          "name": "_status",
          "type": "bytes32"
        }
      ],
      "name": "registerUser",
      "outputs": [
        {
          "name": "",
          "type": "uint256"
        }
      ],
      "payable": false,
      "stateMutability": "nonpayable",
      "type": "function"
    },
    {
      "constant": false,
      "inputs": [
        {
          "name": "_newUserName",
          "type": "string"
        },
        {
          "name": "_newStatus",
          "type": "bytes32"
        }
      ],
      "name": "updateUser",
      "outputs": [
        {
          "name": "",
          "type": "uint256"
        }
      ],
      "payable": false,
      "stateMutability": "nonpayable",
      "type": "function"
    },
    {
      "constant": true,
      "inputs": [
        {
          "name": "_id",
          "type": "uint256"
        }
      ],
      "name": "getUserById",
      "outputs": [
        {
          "name": "",
          "type": "uint256"
        },
        {
          "name": "",
          "type": "string"
        },
        {
          "name": "",
          "type": "bytes32"
        },
        {
          "name": "",
          "type": "address"
        },
        {
          "name": "",
          "type": "uint256"
        },
        {
          "name": "",
          "type": "uint256"
        }
      ],
      "payable": false,
      "stateMutability": "view",
      "type": "function"
    },
    {
      "constant": true,
      "inputs": [],
      "name": "getOwnProfile",
      "outputs": [
        {
          "name": "",
          "type": "uint256"
        },
        {
          "name": "",
          "type": "string"
        },
        {
          "name": "",
          "type": "bytes32"
        },
        {
          "name": "",
          "type": "address"
        },
        {
          "name": "",
          "type": "uint256"
        },
        {
          "name": "",
          "type": "uint256"
        }
      ],
      "payable": false,
      "stateMutability": "view",
      "type": "function"
    },
    {
      "constant": true,
      "inputs": [],
      "name": "isRegistered",
      "outputs": [
        {
          "name": "",
          "type": "bool"
        }
      ],
      "payable": false,
      "stateMutability": "view",
      "type": "function"
    },
    {
      "constant": true,
      "inputs": [],
      "name": "totalUsers",
      "outputs": [
        {
          "name": "",
          "type": "uint256"
        }
      ],
      "payable": false,
      "stateMutability": "view",
      "type": "function"
    }
  ],
  "bytecode": "0x608060405234801561001057600080fd5b50610edf806100206000396000f3fe60806040526004361061008e576000357c0100000000000000000000000000000000000000000000000000000000900463ffffffff1680632236684414610093578063365b98b2146100c257806368ae5563146101be5780636ed6da9e146102a45780638f394715146103a7578063b8e21a5b1461048d578063bff1f9e1146104f2578063fd1b51581461051d575b600080fd5b34801561009f57600080fd5b506100a86105fc565b604051808215151515815260200191505060405180910390f35b3480156100ce57600080fd5b506100fb600480360360208110156100e557600080fd5b8101908080359060200190929190505050610645565b60405180806020018681526020018573ffffffffffffffffffffffffffffffffffffffff1673ffffffffffffffffffffffffffffffffffffffff168152602001848152602001838152602001828103825287818151815260200191508051906020019080838360005b8381101561017f578082015181840152602081019050610164565b50505050905090810190601f1680156101ac5780820380516001836020036101000a031916815260200191505b50965050505050505060405180910390f35b3480156101ca57600080fd5b5061028e600480360360408110156101e157600080fd5b81019080803590602001906401000000008111156101fe57600080fd5b82018360208201111561021057600080fd5b8035906020019184600183028401116401000000008311171561023257600080fd5b91908080601f016020809104026020016040519081016040528093929190818152602001838380828437600081840152601f19601f82011690508083019250505050505050919291929080359060200190929190505050610742565b6040518082815260200191505060405180910390f35b3480156102b057600080fd5b506102dd600480360360208110156102c757600080fd5b8101908080359060200190929190505050610757565b60405180878152602001806020018681526020018573ffffffffffffffffffffffffffffffffffffffff1673ffffffffffffffffffffffffffffffffffffffff168152602001848152602001838152602001828103825287818151815260200191508051906020019080838360005b8381101561036757808201518184015260208101905061034c565b50505050905090810190601f1680156103945780820380516001836020036101000a031916815260200191505b5097505050505050505060405180910390f35b3480156103b357600080fd5b50610477600480360360408110156103ca57600080fd5b81019080803590602001906401000000008111156103e757600080fd5b8201836020820111156103f957600080fd5b8035906020019184600183028401116401000000008311171561041b57600080fd5b91908080601f016020809104026020016040519081016040528093929190818152602001838380828437600081840152601f19601f820116905080830192505050505050509192919290803590602001909291905050506108fc565b6040518082815260200191505060405180910390f35b34801561049957600080fd5b506104dc600480360360208110156104b057600080fd5b81019080803573ffffffffffffffffffffffffffffffffffffffff1690602001909291905050506109e2565b6040518082815260200191505060405180910390f35b3480156104fe57600080fd5b506105076109fa565b6040518082815260200191505060405180910390f35b34801561052957600080fd5b50610532610a09565b60405180878152602001806020018681526020018573ffffffffffffffffffffffffffffffffffffffff1673ffffffffffffffffffffffffffffffffffffffff168152602001848152602001838152602001828103825287818151815260200191508051906020019080838360005b838110156105bc5780820151818401526020810190506105a1565b50505050905090810190601f1680156105e95780820380516001836020036101000a031916815260200191505b5097505050505050505060405180910390f35b6000806000803373ffffffffffffffffffffffffffffffffffffffff1673ffffffffffffffffffffffffffffffffffffffff168152602001908152602001600020541415905090565b60018181548110151561065457fe5b9060005260206000209060050201600091509050806000018054600181600116156101000203166002900480601f0160208091040260200160405190810160405280929190818152602001828054600181600116156101000203166002900480156107005780601f106106d557610100808354040283529160200191610700565b820191906000526020600020905b8154815290600101906020018083116106e357829003601f168201915b5050505050908060010154908060020160009054906101000a900473ffffffffffffffffffffffffffffffffffffffff16908060030154908060040154905085565b600061074f338484610a87565b905092915050565b60006060600080600080600087118061077557506001805490508711155b151561078057600080fd5b610788610c5d565b60018881548110151561079757fe5b906000526020600020906005020160a06040519081016040529081600082018054600181600116156101000203166002900480601f01602080910402602001604051908101604052809291908181526020018280546001816001161561010002031660029004801561084a5780601f1061081f5761010080835404028352916020019161084a565b820191906000526020600020905b81548152906001019060200180831161082d57829003601f168201915b50505050508152602001600182015481526020016002820160009054906101000a900473ffffffffffffffffffffffffffffffffffffffff1673ffffffffffffffffffffffffffffffffffffffff1673ffffffffffffffffffffffffffffffffffffffff16815260200160038201548152602001600482015481525050905087816000015182602001518360400151846060015185608001518494509650965096509650965096505091939550919395565b60006109066105fc565b151561091157600080fd5b60008060003373ffffffffffffffffffffffffffffffffffffffff1673ffffffffffffffffffffffffffffffffffffffff168152602001908152602001600020549050600060018281548110151561096557fe5b906000526020600020906005020190508481600001908051906020019061098d929190610ca6565b508381600101819055504281600401819055507f179dda4b314caed68129a8b8bbd77c7a4fb092c2d9fb3de452a4f8e4839dc876826040518082815260200191505060405180910390a1819250505092915050565b60006020528060005260406000206000915090505481565b60006001808054905003905090565b60006060600080600080610a1b6105fc565b1515610a2657600080fd5b60008060003373ffffffffffffffffffffffffffffffffffffffff1673ffffffffffffffffffffffffffffffffffffffff168152602001908152602001600020549050610a7281610757565b96509650965096509650965050909192939495565b6000806000808673ffffffffffffffffffffffffffffffffffffffff1673ffffffffffffffffffffffffffffffffffffffff168152602001908152602001600020549050600081141515610ada57600080fd5b6001805490506000808773ffffffffffffffffffffffffffffffffffffffff1673ffffffffffffffffffffffffffffffffffffffff16815260200190815260200160002081905550600060018054809190600101610b389190610d26565b905060a0604051908101604052808681526020018581526020018773ffffffffffffffffffffffffffffffffffffffff16815260200142815260200142815250600182815481101515610b8757fe5b90600052602060002090600502016000820151816000019080519060200190610bb1929190610d58565b506020820151816001015560408201518160020160006101000a81548173ffffffffffffffffffffffffffffffffffffffff021916908373ffffffffffffffffffffffffffffffffffffffff16021790555060608201518160030155608082015181600401559050507f2456c02735fb44894660d2af194ca5261385d8ee03675e1d75b0da1300a764cd816040518082815260200191505060405180910390a180925050509392505050565b60a0604051908101604052806060815260200160008019168152602001600073ffffffffffffffffffffffffffffffffffffffff16815260200160008152602001600081525090565b828054600181600116156101000203166002900490600052602060002090601f016020900481019282601f10610ce757805160ff1916838001178555610d15565b82800160010185558215610d15579182015b82811115610d14578251825591602001919060010190610cf9565b5b509050610d229190610dd8565b5090565b815481835581811115610d5357600502816005028360005260206000209182019101610d529190610dfd565b5b505050565b828054600181600116156101000203166002900490600052602060002090601f016020900481019282601f10610d9957805160ff1916838001178555610dc7565b82800160010185558215610dc7579182015b82811115610dc6578251825591602001919060010190610dab565b5b509050610dd49190610dd8565b5090565b610dfa91905b80821115610df6576000816000905550600101610dde565b5090565b90565b610e6891905b80821115610e645760008082016000610e1c9190610e6b565b60018201600090556002820160006101000a81549073ffffffffffffffffffffffffffffffffffffffff02191690556003820160009055600482016000905550600501610e03565b5090565b90565b50805460018160011615610100020316600290046000825580601f10610e915750610eb0565b601f016020900490600052602060002090810190610eaf9190610dd8565b5b5056fea165627a7a7230582068182c89c5e07ac55e2751ab092f3b3c51a1b7a13c4c7dac14622711cdef764e0029",
  "source": "pragma solidity ^0.5.0;\n\n\n\ncontract Players {\n    // data structure that stores a user\n    struct User {\n        string name;\n        bytes32 status;\n        address walletAddress;\n        uint createdAt;\n        uint updatedAt;\n    }\n\n    // it maps the user's wallet address with the user ID\n    mapping (address => uint) public usersIds;\n\n    // Array of User that holds the list of users and their details\n    User[] public users;\n\n    // event fired when an user is registered\n    event newUserRegistered(uint id);\n\n    // event fired when the user updates his status or name\n    event userUpdateEvent(uint id);\n\n\n\n    // Modifier: check if the caller of the smart contract is registered\n    modifier checkSenderIsRegistered {\n    \trequire(isRegistered());\n    \t_;\n    }\n\n\n\n    /**\n     * Constructor function\n     */\n    constructor() public\n    {\n        // NOTE: the first user MUST be emtpy\n        //addUser(address(0x0), \"\", \"\");\n\n        // Some dummy data\n        //addUser(address(0x333333333333), \"Leo Brown\", \"Available\");\n        //addUser(address(0x111111111111), \"John Doe\", \"Very happy\");\n        //addUser(address(0x222222222222), \"Mary Smith\", \"Not in the mood today\");\n    }\n\n\n\n    /**\n     * Function to register a new user.\n     *\n     * @param _userName \t\tThe displaying name\n     * @param _status        The status of the user\n     */\n    function registerUser(string memory _userName, bytes32 _status) public\n    returns(uint)\n    {\n    \treturn addUser(msg.sender, _userName, _status);\n    }\n\n\n\n    /**\n     * Add a new user. This function must be private because an user\n     * cannot insert another user on behalf of someone else.\n     *\n     * @param _wAddr \t\tAddress wallet of the user\n     * @param _userName\t\tDisplaying name of the user\n     * @param _status    \tStatus of the user\n     */\n    function addUser(address _wAddr, string memory _userName, bytes32 _status) private\n    returns(uint)\n    {\n        // checking if the user is already registered\n        uint userId = usersIds[_wAddr];\n        require (userId == 0);\n\n        // associating the user wallet address with the new ID\n        usersIds[_wAddr] = users.length;\n        uint newUserId = users.length++;\n\n        // storing the new user details\n        users[newUserId] = User({\n        \tname: _userName,\n        \tstatus: _status,\n        \twalletAddress: _wAddr,\n        \tcreatedAt: now,\n        \tupdatedAt: now\n        });\n\n        // emitting the event that a new user has been registered\n        emit newUserRegistered(newUserId);\n\n        return newUserId;\n    }\n\n\n\n    /**\n     * Update the user profile of the caller of this method.\n     * Note: the user can modify only his own profile.\n     *\n     * @param _newUserName\tThe new user's displaying name\n     * @param _newStatus \tThe new user's status\n     */\n    function updateUser(string memory _newUserName, bytes32 _newStatus) checkSenderIsRegistered public\n    returns(uint)\n    {\n    \t// An user can modify only his own profile.\n    \tuint userId = usersIds[msg.sender];\n\n    \tUser storage user = users[userId];\n\n    \tuser.name = _newUserName;\n    \tuser.status = _newStatus;\n    \tuser.updatedAt = now;\n\n    \temit userUpdateEvent(userId);\n\n    \treturn userId;\n    }\n\n\n\n    /**\n     * Get the user's profile information.\n     *\n     * @param _id \tThe ID of the user stored on the blockchain.\n     */\n    function getUserById(uint _id) public view\n    returns(\n    \tuint,\n    \tstring memory,\n    \tbytes32,\n    \taddress,\n    \tuint,\n    \tuint\n    ) {\n    \t// checking if the ID is valid\n    \trequire( (_id > 0) || (_id <= users.length) );\n\n    \tUser memory i = users[_id];\n\n    \treturn (\n    \t\t_id,\n    \t\ti.name,\n    \t\ti.status,\n    \t\ti.walletAddress,\n    \t\ti.createdAt,\n    \t\ti.updatedAt\n    \t);\n    }\n\n\n\n    /**\n     * Return the profile information of the caller.\n     */\n    function getOwnProfile() checkSenderIsRegistered public view\n    returns(\n    \tuint,\n    \tstring memory,\n    \tbytes32,\n    \taddress,\n    \tuint,\n    \tuint\n    ) {\n    \tuint id = usersIds[msg.sender];\n\n    \treturn getUserById(id);\n    }\n\n\n\n    /**\n     * Check if the user that is calling the smart contract is registered.\n     */\n    function isRegistered() public view returns (bool)\n    {\n    \treturn (usersIds[msg.sender] != 0);\n    }\n\n\n\n    /**\n     * Return the number of total registered users.\n     */\n    function totalUsers() public view returns (uint)\n    {\n        return users.length - 1;\n    }\n\n}\n",
  "sourcePath": "E:/workspace_oxygen/data/private/vue/crypto-voting-master/contracts/Players.sol",
  "compiler": {
    "name": "solc",
    "version": "0.5.0+commit.1d4f565a.Emscripten.clang"
  },
  "schemaVersion": "3.0.1",
  "updatedAt": "2019-02-20T15:02:27.134Z",
  "devdoc": {
    "methods": {
      "getUserById(uint256)": {
        "params": {
          "_id": "The ID of the user stored on the blockchain."
        }
      },
      "registerUser(string,bytes32)": {
        "params": {
          "_status": "The status of the user",
          "_userName": "The displaying name"
        }
      },
      "updateUser(string,bytes32)": {
        "params": {
          "_newStatus": "The new user's status",
          "_newUserName": "The new user's displaying name"
        }
      }
    }
  },
  "userdoc": {
    "methods": {
      "constructor": "Constructor function",
      "getOwnProfile()": {
        "notice": "Return the profile information of the caller."
      },
      "getUserById(uint256)": {
        "notice": "Get the user's profile information."
      },
      "isRegistered()": {
        "notice": "Check if the user that is calling the smart contract is registered."
      },
      "registerUser(string,bytes32)": {
        "notice": "Function to register a new user."
      },
      "totalUsers()": {
        "notice": "Return the number of total registered users."
      },
      "updateUser(string,bytes32)": {
        "notice": "Update the user profile of the caller of this method. Note: the user can modify only his own profile."
      }
    }
  }
}