{
  "contractName": "Voting",
  "abi": [
    {
      "constant": true,
      "inputs": [
        {
          "name": "",
          "type": "uint256"
        }
      ],
      "name": "proposals",
      "outputs": [
        {
          "name": "title",
          "type": "string"
        },
        {
          "name": "voteCountPos",
          "type": "uint256"
        },
        {
          "name": "voteCountNeg",
          "type": "uint256"
        },
        {
          "name": "voteCountAbs",
          "type": "uint256"
        }
      ],
      "payable": false,
      "stateMutability": "view",
      "type": "function"
    },
    {
      "anonymous": false,
      "inputs": [],
      "name": "CreatedProposalEvent",
      "type": "event"
    },
    {
      "anonymous": false,
      "inputs": [],
      "name": "CreatedVoteEvent",
      "type": "event"
    },
    {
      "constant": true,
      "inputs": [],
      "name": "getNumProposals",
      "outputs": [
        {
          "name": "",
          "type": "uint256"
        }
      ],
      "payable": false,
      "stateMutability": "view",
      "type": "function"
    },
    {
      "constant": true,
      "inputs": [
        {
          "name": "proposalInt",
          "type": "uint256"
        }
      ],
      "name": "getProposal",
      "outputs": [
        {
          "name": "",
          "type": "uint256"
        },
        {
          "name": "",
          "type": "string"
        },
        {
          "name": "",
          "type": "uint256"
        },
        {
          "name": "",
          "type": "uint256"
        },
        {
          "name": "",
          "type": "uint256"
        },
        {
          "name": "",
          "type": "address[]"
        }
      ],
      "payable": false,
      "stateMutability": "view",
      "type": "function"
    },
    {
      "constant": false,
      "inputs": [
        {
          "name": "title",
          "type": "string"
        }
      ],
      "name": "addProposal",
      "outputs": [
        {
          "name": "",
          "type": "bool"
        }
      ],
      "payable": false,
      "stateMutability": "nonpayable",
      "type": "function"
    },
    {
      "constant": false,
      "inputs": [
        {
          "name": "proposalInt",
          "type": "uint256"
        },
        {
          "name": "voteValue",
          "type": "uint256"
        }
      ],
      "name": "vote",
      "outputs": [
        {
          "name": "",
          "type": "bool"
        }
      ],
      "payable": false,
      "stateMutability": "nonpayable",
      "type": "function"
    }
  ],
  "bytecode": "0x608060405234801561001057600080fd5b50610b78806100206000396000f3fe60806040526004361061006d576000357c0100000000000000000000000000000000000000000000000000000000900463ffffffff168063013cf08b146100725780632fdae3c51461013b578063798974dd1461021b578063b384abef14610246578063c7f758a8146102a3575b600080fd5b34801561007e57600080fd5b506100ab6004803603602081101561009557600080fd5b81019080803590602001909291905050506103bb565b6040518080602001858152602001848152602001838152602001828103825286818151815260200191508051906020019080838360005b838110156100fd5780820151818401526020810190506100e2565b50505050905090810190601f16801561012a5780820380516001836020036101000a031916815260200191505b509550505050505060405180910390f35b34801561014757600080fd5b506102016004803603602081101561015e57600080fd5b810190808035906020019064010000000081111561017b57600080fd5b82018360208201111561018d57600080fd5b803590602001918460018302840111640100000000831117156101af57600080fd5b91908080601f016020809104026020016040519081016040528093929190818152602001838380828437600081840152601f19601f820116905080830192505050505050509192919290505050610492565b604051808215151515815260200191505060405180910390f35b34801561022757600080fd5b50610230610564565b6040518082815260200191505060405180910390f35b34801561025257600080fd5b506102896004803603604081101561026957600080fd5b810190808035906020019092919080359060200190929190505050610570565b604051808215151515815260200191505060405180910390f35b3480156102af57600080fd5b506102dc600480360360208110156102c657600080fd5b810190808035906020019092919050505061081a565b604051808781526020018060200186815260200185815260200184815260200180602001838103835288818151815260200191508051906020019080838360005b8381101561033857808201518184015260208101905061031d565b50505050905090810190601f1680156103655780820380516001836020036101000a031916815260200191505b50838103825284818151815260200191508051906020019060200280838360005b838110156103a1578082015181840152602081019050610386565b505050509050019850505050505050505060405180910390f35b6000818154811015156103ca57fe5b9060005260206000209060060201600091509050806000018054600181600116156101000203166002900480601f0160208091040260200160405190810160405280929190818152602001828054600181600116156101000203166002900480156104765780601f1061044b57610100808354040283529160200191610476565b820191906000526020600020905b81548152906001019060200180831161045957829003601f168201915b5050505050908060010154908060020154908060030154905084565b600061049c6109aa565b7f0616bfbef63fbb3fb188ace13631901ead91828d4bc417e8d62b118462b60ff960405160405180910390a182816000018190525060008190806001815401808255809150509060018203906000526020600020906006020160009091929091909150600082015181600001908051906020019061051b9291906109da565b506020820151816001015560408201518160020155606082015181600301556080820151816005019080519060200190610556929190610a5a565b505050506001915050919050565b60008080549050905090565b600080151560008481548110151561058457fe5b906000526020600020906006020160040160003373ffffffffffffffffffffffffffffffffffffffff1673ffffffffffffffffffffffffffffffffffffffff16815260200190815260200160002060010160009054906101000a900460ff161515141561080f5760018214806105fa5750600282145b806106055750600382145b1515610654576040517f08c379a0000000000000000000000000000000000000000000000000000000008152600401808060200182810382526000815260200160200191505060405180910390fd5b6000808481548110151561066457fe5b90600052602060002090600602019050600183141561069557600181600101600082825401925050819055506106cb565b60028314156106b657600181600201600082825401925050819055506106ca565b600181600301600082825401925050819055505b5b828160040160003373ffffffffffffffffffffffffffffffffffffffff1673ffffffffffffffffffffffffffffffffffffffff1681526020019081526020016000206000018190555060018160040160003373ffffffffffffffffffffffffffffffffffffffff1673ffffffffffffffffffffffffffffffffffffffff16815260200190815260200160002060010160006101000a81548160ff021916908315150217905550806005013390806001815401808255809150509060018203906000526020600020016000909192909190916101000a81548173ffffffffffffffffffffffffffffffffffffffff021916908373ffffffffffffffffffffffffffffffffffffffff160217905550507fc8d0f117c265f186f11ddd2b492c5183055634fe9b702704eb82c0fe0466364460405160405180910390a16001915050610814565b600090505b92915050565b60006060600080600060606000808054905011156109a0576000808881548110151561084257fe5b90600052602060002090600602019050878160000182600101548360020154846003015485600501848054600181600116156101000203166002900480601f0160208091040260200160405190810160405280929190818152602001828054600181600116156101000203166002900480156108ff5780601f106108d4576101008083540402835291602001916108ff565b820191906000526020600020905b8154815290600101906020018083116108e257829003601f168201915b505050505094508080548060200260200160405190810160405280929190818152602001828054801561098757602002820191906000526020600020905b8160009054906101000a900473ffffffffffffffffffffffffffffffffffffffff1673ffffffffffffffffffffffffffffffffffffffff168152602001906001019080831161093d575b50505050509050965096509650965096509650506109a1565b5b91939550919395565b60a06040519081016040528060608152602001600081526020016000815260200160008152602001606081525090565b828054600181600116156101000203166002900490600052602060002090601f016020900481019282601f10610a1b57805160ff1916838001178555610a49565b82800160010185558215610a49579182015b82811115610a48578251825591602001919060010190610a2d565b5b509050610a569190610ae4565b5090565b828054828255906000526020600020908101928215610ad3579160200282015b82811115610ad25782518260006101000a81548173ffffffffffffffffffffffffffffffffffffffff021916908373ffffffffffffffffffffffffffffffffffffffff16021790555091602001919060010190610a7a565b5b509050610ae09190610b09565b5090565b610b0691905b80821115610b02576000816000905550600101610aea565b5090565b90565b610b4991905b80821115610b4557600081816101000a81549073ffffffffffffffffffffffffffffffffffffffff021916905550600101610b0f565b5090565b9056fea165627a7a723058204f53ac76db5f70a555805930ffe19e5e4305f3b03dc00bf685d4ea792ee904ce0029",
  "source": "pragma solidity ^0.5.0;\r\n\r\n\r\ncontract Voting {\r\n\r\n    struct Proposal {\r\n        string title;\r\n        uint voteCountPos;\r\n        uint voteCountNeg;\r\n        uint voteCountAbs;\r\n        mapping (address => Voter) voters;\r\n        address[] votersAddress;\r\n    }\r\n\r\n    struct Voter {\r\n        uint value;\r\n        bool voted;\r\n    }\r\n\r\n    Proposal[] public proposals;\r\n\r\n    event CreatedProposalEvent();\r\n    event CreatedVoteEvent();\r\n\r\n    function getNumProposals() public view returns (uint) {\r\n        return proposals.length;\r\n    }\r\n\r\n    function getProposal(uint proposalInt) public view returns (uint, string memory, uint, uint, uint, address[] memory) {\r\n        if (proposals.length > 0) {\r\n            Proposal storage p = proposals[proposalInt]; // Get the proposal\r\n            return (proposalInt, p.title, p.voteCountPos, p.voteCountNeg, p.voteCountAbs, p.votersAddress);\r\n        }\r\n    }\r\n\r\n    function addProposal(string memory title) public returns (bool) {\r\n        Proposal memory proposal;\r\n        emit CreatedProposalEvent();\r\n        proposal.title = title;\r\n        proposals.push(proposal);\r\n        return true;\r\n    }\r\n\r\n    function vote(uint proposalInt, uint voteValue) public returns (bool) {\r\n        if (proposals[proposalInt].voters[msg.sender].voted == false) { // check duplicate key\r\n            require(voteValue == 1 || voteValue == 2 || voteValue == 3, \"\"); // check voteValue\r\n            Proposal storage p = proposals[proposalInt]; // Get the proposal\r\n            if (voteValue == 1) {\r\n                p.voteCountPos += 1;\r\n            } else if (voteValue == 2) {\r\n                p.voteCountNeg += 1;\r\n            } else {\r\n                p.voteCountAbs += 1;\r\n            }\r\n            p.voters[msg.sender].value = voteValue;\r\n            p.voters[msg.sender].voted = true;\r\n            p.votersAddress.push(msg.sender);\r\n            emit CreatedVoteEvent();\r\n            return true;\r\n        } else {\r\n            return false;\r\n        }\r\n    }\r\n\r\n}",
  "sourcePath": "E:/workspace_oxygen/data/private/vue/crypto-voting-master/contracts/Voting.sol",
  "compiler": {
    "name": "solc",
    "version": "0.5.0+commit.1d4f565a.Emscripten.clang"
  },
  "schemaVersion": "3.0.1",
  "updatedAt": "2019-02-20T15:02:27.135Z",
  "devdoc": {
    "methods": {}
  },
  "userdoc": {
    "methods": {}
  }
}